{
  "_format": "hh3-artifact-1",
  "contractName": "Notes",
  "sourceName": "contracts/Notes.sol",
  "abi": [
    {
      "anonymous": false,
      "inputs": [
        {
          "indexed": true,
          "internalType": "uint256",
          "name": "noteId",
          "type": "uint256"
        },
        {
          "indexed": true,
          "internalType": "address",
          "name": "author",
          "type": "address"
        },
        {
          "indexed": false,
          "internalType": "string",
          "name": "title",
          "type": "string"
        },
        {
          "indexed": false,
          "internalType": "bool",
          "name": "isPublic",
          "type": "bool"
        }
      ],
      "name": "NoteCreated",
      "type": "event"
    },
    {
      "anonymous": false,
      "inputs": [
        {
          "indexed": true,
          "internalType": "uint256",
          "name": "noteId",
          "type": "uint256"
        },
        {
          "indexed": true,
          "internalType": "address",
          "name": "author",
          "type": "address"
        }
      ],
      "name": "NoteDeleted",
      "type": "event"
    },
    {
      "anonymous": false,
      "inputs": [
        {
          "indexed": true,
          "internalType": "uint256",
          "name": "noteId",
          "type": "uint256"
        },
        {
          "indexed": true,
          "internalType": "address",
          "name": "author",
          "type": "address"
        },
        {
          "indexed": false,
          "internalType": "string",
          "name": "title",
          "type": "string"
        }
      ],
      "name": "NoteUpdated",
      "type": "event"
    },
    {
      "anonymous": false,
      "inputs": [
        {
          "indexed": true,
          "internalType": "uint256",
          "name": "noteId",
          "type": "uint256"
        },
        {
          "indexed": false,
          "internalType": "bool",
          "name": "isPublic",
          "type": "bool"
        }
      ],
      "name": "NoteVisibilityChanged",
      "type": "event"
    },
    {
      "inputs": [
        {
          "internalType": "string",
          "name": "title",
          "type": "string"
        },
        {
          "internalType": "string",
          "name": "content",
          "type": "string"
        },
        {
          "internalType": "bool",
          "name": "isPublic",
          "type": "bool"
        }
      ],
      "name": "createNote",
      "outputs": [
        {
          "internalType": "uint256",
          "name": "",
          "type": "uint256"
        }
      ],
      "stateMutability": "nonpayable",
      "type": "function"
    },
    {
      "inputs": [
        {
          "internalType": "uint256",
          "name": "noteId",
          "type": "uint256"
        }
      ],
      "name": "deleteNote",
      "outputs": [],
      "stateMutability": "nonpayable",
      "type": "function"
    },
    {
      "inputs": [
        {
          "internalType": "uint256",
          "name": "noteId",
          "type": "uint256"
        }
      ],
      "name": "getNote",
      "outputs": [
        {
          "components": [
            {
              "internalType": "uint256",
              "name": "id",
              "type": "uint256"
            },
            {
              "internalType": "address",
              "name": "author",
              "type": "address"
            },
            {
              "internalType": "string",
              "name": "title",
              "type": "string"
            },
            {
              "internalType": "string",
              "name": "content",
              "type": "string"
            },
            {
              "internalType": "uint256",
              "name": "createdAt",
              "type": "uint256"
            },
            {
              "internalType": "uint256",
              "name": "updatedAt",
              "type": "uint256"
            },
            {
              "internalType": "bool",
              "name": "isPublic",
              "type": "bool"
            }
          ],
          "internalType": "struct Notes.Note",
          "name": "",
          "type": "tuple"
        }
      ],
      "stateMutability": "view",
      "type": "function"
    },
    {
      "inputs": [],
      "name": "getPublicNoteCount",
      "outputs": [
        {
          "internalType": "uint256",
          "name": "",
          "type": "uint256"
        }
      ],
      "stateMutability": "view",
      "type": "function"
    },
    {
      "inputs": [],
      "name": "getPublicNotes",
      "outputs": [
        {
          "components": [
            {
              "internalType": "uint256",
              "name": "id",
              "type": "uint256"
            },
            {
              "internalType": "address",
              "name": "author",
              "type": "address"
            },
            {
              "internalType": "string",
              "name": "title",
              "type": "string"
            },
            {
              "internalType": "string",
              "name": "content",
              "type": "string"
            },
            {
              "internalType": "uint256",
              "name": "createdAt",
              "type": "uint256"
            },
            {
              "internalType": "uint256",
              "name": "updatedAt",
              "type": "uint256"
            },
            {
              "internalType": "bool",
              "name": "isPublic",
              "type": "bool"
            }
          ],
          "internalType": "struct Notes.Note[]",
          "name": "",
          "type": "tuple[]"
        }
      ],
      "stateMutability": "view",
      "type": "function"
    },
    {
      "inputs": [
        {
          "internalType": "address",
          "name": "user",
          "type": "address"
        }
      ],
      "name": "getUserNoteCount",
      "outputs": [
        {
          "internalType": "uint256",
          "name": "",
          "type": "uint256"
        }
      ],
      "stateMutability": "view",
      "type": "function"
    },
    {
      "inputs": [
        {
          "internalType": "address",
          "name": "user",
          "type": "address"
        }
      ],
      "name": "getUserNotes",
      "outputs": [
        {
          "components": [
            {
              "internalType": "uint256",
              "name": "id",
              "type": "uint256"
            },
            {
              "internalType": "address",
              "name": "author",
              "type": "address"
            },
            {
              "internalType": "string",
              "name": "title",
              "type": "string"
            },
            {
              "internalType": "string",
              "name": "content",
              "type": "string"
            },
            {
              "internalType": "uint256",
              "name": "createdAt",
              "type": "uint256"
            },
            {
              "internalType": "uint256",
              "name": "updatedAt",
              "type": "uint256"
            },
            {
              "internalType": "bool",
              "name": "isPublic",
              "type": "bool"
            }
          ],
          "internalType": "struct Notes.Note[]",
          "name": "",
          "type": "tuple[]"
        }
      ],
      "stateMutability": "view",
      "type": "function"
    },
    {
      "inputs": [
        {
          "internalType": "uint256",
          "name": "noteId",
          "type": "uint256"
        }
      ],
      "name": "toggleNoteVisibility",
      "outputs": [],
      "stateMutability": "nonpayable",
      "type": "function"
    },
    {
      "inputs": [
        {
          "internalType": "uint256",
          "name": "noteId",
          "type": "uint256"
        },
        {
          "internalType": "string",
          "name": "title",
          "type": "string"
        },
        {
          "internalType": "string",
          "name": "content",
          "type": "string"
        }
      ],
      "name": "updateNote",
      "outputs": [],
      "stateMutability": "nonpayable",
      "type": "function"
    }
  ],
  "bytecode": "0x6080604052348015600e575f5ffd5b506117d38061001c5f395ff3fe608060405234801561000f575f5ffd5b5060043610610090575f3560e01c80637358eafd116100635780637358eafd14610101578063769f4ab614610114578063a965a94114610127578063c47177f414610147578063d0ccd9f81461015a575f5ffd5b806309abcd3b14610094578063186ffcc8146100a957806319a7fce9146100e4578063664dbcdb146100ec575b5f5ffd5b6100a76100a2366004611322565b61016d565b005b6100d16100b736600461138f565b6001600160a01b03165f9081526002602052604090205490565b6040519081526020015b60405180910390f35b6003546100d1565b6100f46102f1565b6040516100db9190611460565b6100a761010f3660046114c3565b6105f7565b6100d16101223660046114da565b610722565b61013a6101353660046114c3565b610934565b6040516100db9190611556565b6100a76101553660046114c3565b610b52565b6100f461016836600461138f565b610de9565b5f838152600160208190526040909120015483906001600160a01b03166101af5760405162461bcd60e51b81526004016101a690611568565b60405180910390fd5b5f848152600160208190526040909120015484906001600160a01b031633146101ea5760405162461bcd60e51b81526004016101a690611595565b5f8451116102325760405162461bcd60e51b81526020600482015260156024820152745469746c652063616e6e6f7420626520656d70747960581b60448201526064016101a6565b5f83511161027c5760405162461bcd60e51b8152602060048201526017602482015276436f6e74656e742063616e6e6f7420626520656d70747960481b60448201526064016101a6565b5f858152600160205260409020600281016102978682611640565b50600381016102a68582611640565b50426005820155604051339087907f23e5f2318fab65289bb1be54a75baf7ad3b3ed6f5e42623ebc44c3a737193301906102e19089906116fb565b60405180910390a3505050505050565b6003546060905f9067ffffffffffffffff81111561031157610311611283565b60405190808252806020026020018201604052801561034a57816020015b6103376111ee565b81526020019060019003908161032f5790505b5090505f805b60035481101561054f575f6003828154811061036e5761036e61170d565b5f918252602080832090910154808352600191829052604090922001549091506001600160a01b031615610546575f81815260016020818152604092839020835160e08101855281548152928101546001600160a01b03169183019190915260028101805492939192918401916103e4906115c2565b80601f0160208091040260200160405190810160405280929190818152602001828054610410906115c2565b801561045b5780601f106104325761010080835404028352916020019161045b565b820191905f5260205f20905b81548152906001019060200180831161043e57829003601f168201915b50505050508152602001600382018054610474906115c2565b80601f01602080910402602001604051908101604052809291908181526020018280546104a0906115c2565b80156104eb5780601f106104c2576101008083540402835291602001916104eb565b820191905f5260205f20905b8154815290600101906020018083116104ce57829003601f168201915b5050509183525050600482015460208201526005820154604082015260069091015460ff161515606090910152845185908590811061052c5761052c61170d565b6020026020010181905250828061054290611735565b9350505b50600101610350565b505f8167ffffffffffffffff81111561056a5761056a611283565b6040519080825280602002602001820160405280156105a357816020015b6105906111ee565b8152602001906001900390816105885790505b5090505f5b828110156105ef578381815181106105c2576105c261170d565b60200260200101518282815181106105dc576105dc61170d565b60209081029190910101526001016105a8565b509392505050565b5f818152600160208190526040909120015481906001600160a01b03166106305760405162461bcd60e51b81526004016101a690611568565b5f828152600160208190526040909120015482906001600160a01b0316331461066b5760405162461bcd60e51b81526004016101a690611595565b5f83815260016020526040902060068101805460ff19811660ff9182161590811790925516156106ce57600380546001810182555f919091527fc2575a0e9e593c00f959f8c92f12db2869c3395a3b0502d05e2516446f71f85b018490556106d7565b6106d784611085565b600681015460405185917f65517ad837dbce94097ec5c4696af569688ac35e460977b8daad12caf91e9242916107149160ff161515815260200190565b60405180910390a250505050565b5f5f84511161076b5760405162461bcd60e51b81526020600482015260156024820152745469746c652063616e6e6f7420626520656d70747960581b60448201526064016101a6565b5f8351116107b55760405162461bcd60e51b8152602060048201526017602482015276436f6e74656e742063616e6e6f7420626520656d70747960481b60448201526064016101a6565b5f805481806107c383611735565b909155506040805160e0810182528281523360208083019182528284018a8152606084018a9052426080850181905260a085015288151560c08501525f8681526001928390529490942083518155915190820180546001600160a01b0319166001600160a01b0390921691909117905591519293509160028201906108489082611640565b506060820151600382019061085d9082611640565b506080820151600482015560a0820151600582015560c0909101516006909101805460ff1916911515919091179055335f9081526002602090815260408220805460018101825590835291200181905582156108e857600380546001810182555f919091527fc2575a0e9e593c00f959f8c92f12db2869c3395a3b0502d05e2516446f71f85b018190555b336001600160a01b0316817f0b08e08b09222137cc6aef7204050fe66974565c309777d841fb9fbf7e2b9783878660405161092492919061174d565b60405180910390a3949350505050565b61093c6111ee565b5f828152600160208190526040909120015482906001600160a01b03166109755760405162461bcd60e51b81526004016101a690611568565b5f838152600160208181526040808420815160e08101835281548152938101546001600160a01b031692840192909252600282018054918401916109b8906115c2565b80601f01602080910402602001604051908101604052809291908181526020018280546109e4906115c2565b8015610a2f5780601f10610a0657610100808354040283529160200191610a2f565b820191905f5260205f20905b815481529060010190602001808311610a1257829003601f168201915b50505050508152602001600382018054610a48906115c2565b80601f0160208091040260200160405190810160405280929190818152602001828054610a74906115c2565b8015610abf5780601f10610a9657610100808354040283529160200191610abf565b820191905f5260205f20905b815481529060010190602001808311610aa257829003601f168201915b5050509183525050600482015460208201526005820154604082015260069091015460ff16151560609091015260c081015190915080610b0b575060208101516001600160a01b031633145b610b495760405162461bcd60e51b815260206004820152600f60248201526e4e6f7465206973207072697661746560881b60448201526064016101a6565b91505b50919050565b5f818152600160208190526040909120015481906001600160a01b0316610b8b5760405162461bcd60e51b81526004016101a690611568565b5f828152600160208190526040909120015482906001600160a01b03163314610bc65760405162461bcd60e51b81526004016101a690611595565b5f838152600160208181526040808420815160e08101835281548152938101546001600160a01b03169284019290925260028201805491840191610c09906115c2565b80601f0160208091040260200160405190810160405280929190818152602001828054610c35906115c2565b8015610c805780601f10610c5757610100808354040283529160200191610c80565b820191905f5260205f20905b815481529060010190602001808311610c6357829003601f168201915b50505050508152602001600382018054610c99906115c2565b80601f0160208091040260200160405190810160405280929190818152602001828054610cc5906115c2565b8015610d105780601f10610ce757610100808354040283529160200191610d10565b820191905f5260205f20905b815481529060010190602001808311610cf357829003601f168201915b5050509183525050600482015460208201526005820154604082015260069091015460ff16151560609091015260c081015190915015610d5357610d5384611085565b610d5d338561112e565b5f848152600160208190526040822082815590810180546001600160a01b031916905590610d8e6002830182611231565b610d9b600383015f611231565b505f60048201819055600582018190556006909101805460ff19169055604051339186917f728f066f4d1d424ab5f5a591aa40aa650fe607112cd483e67cf2816f8a9631d89190a350505050565b6001600160a01b0381165f908152600260209081526040808320805482518185028101850190935280835260609493830182828015610e4557602002820191905f5260205f20905b815481526020019060010190808311610e31575b505050505090505f815167ffffffffffffffff811115610e6757610e67611283565b604051908082528060200260200182016040528015610ea057816020015b610e8d6111ee565b815260200190600190039081610e855790505b5090505f5b82518110156105ef5760015f848381518110610ec357610ec361170d565b602002602001015181526020019081526020015f206040518060e00160405290815f8201548152602001600182015f9054906101000a90046001600160a01b03166001600160a01b03166001600160a01b03168152602001600282018054610f2a906115c2565b80601f0160208091040260200160405190810160405280929190818152602001828054610f56906115c2565b8015610fa15780601f10610f7857610100808354040283529160200191610fa1565b820191905f5260205f20905b815481529060010190602001808311610f8457829003601f168201915b50505050508152602001600382018054610fba906115c2565b80601f0160208091040260200160405190810160405280929190818152602001828054610fe6906115c2565b80156110315780601f1061100857610100808354040283529160200191611031565b820191905f5260205f20905b81548152906001019060200180831161101457829003601f168201915b5050509183525050600482015460208201526005820154604082015260069091015460ff16151560609091015282518390839081106110725761107261170d565b6020908102919091010152600101610ea5565b5f5b60035481101561112a5781600382815481106110a5576110a561170d565b905f5260205f2001540361112257600380546110c390600190611770565b815481106110d3576110d361170d565b905f5260205f200154600382815481106110ef576110ef61170d565b5f91825260209091200155600380548061110b5761110b611789565b600190038181905f5260205f20015f905590555050565b600101611087565b5050565b6001600160a01b0382165f908152600260205260408120905b81548110156111e857828282815481106111635761116361170d565b905f5260205f200154036111e0578154829061118190600190611770565b815481106111915761119161170d565b905f5260205f2001548282815481106111ac576111ac61170d565b905f5260205f200181905550818054806111c8576111c8611789565b600190038181905f5260205f20015f905590556111e8565b600101611147565b50505050565b6040518060e001604052805f81526020015f6001600160a01b0316815260200160608152602001606081526020015f81526020015f81526020015f151581525090565b50805461123d906115c2565b5f825580601f1061124c575050565b601f0160209004905f5260205f2090810190611268919061126b565b50565b5b8082111561127f575f815560010161126c565b5090565b634e487b7160e01b5f52604160045260245ffd5b5f82601f8301126112a6575f5ffd5b813567ffffffffffffffff8111156112c0576112c0611283565b604051601f8201601f19908116603f0116810167ffffffffffffffff811182821017156112ef576112ef611283565b604052818152838201602001851015611306575f5ffd5b816020850160208301375f918101602001919091529392505050565b5f5f5f60608486031215611334575f5ffd5b83359250602084013567ffffffffffffffff811115611351575f5ffd5b61135d86828701611297565b925050604084013567ffffffffffffffff811115611379575f5ffd5b61138586828701611297565b9150509250925092565b5f6020828403121561139f575f5ffd5b81356001600160a01b03811681146113b5575f5ffd5b9392505050565b5f81518084528060208401602086015e5f602082860101526020601f19601f83011685010191505092915050565b8051825260018060a01b0360208201511660208301525f604082015160e0604085015261141a60e08501826113bc565b90506060830151848203606086015261143382826113bc565b9150506080830151608085015260a083015160a085015260c0830151151560c08501528091505092915050565b5f602082016020835280845180835260408501915060408160051b8601019250602086015f5b828110156114b757603f198786030184526114a28583516113ea565b94506020938401939190910190600101611486565b50929695505050505050565b5f602082840312156114d3575f5ffd5b5035919050565b5f5f5f606084860312156114ec575f5ffd5b833567ffffffffffffffff811115611502575f5ffd5b61150e86828701611297565b935050602084013567ffffffffffffffff81111561152a575f5ffd5b61153686828701611297565b9250506040840135801515811461154b575f5ffd5b809150509250925092565b602081525f6113b560208301846113ea565b602080825260139082015272139bdd1948191bd95cc81b9bdd08195e1a5cdd606a1b604082015260600190565b6020808252601390820152722737ba103a3432903737ba329030baba3437b960691b604082015260600190565b600181811c908216806115d657607f821691505b602082108103610b4c57634e487b7160e01b5f52602260045260245ffd5b601f82111561163b57805f5260205f20601f840160051c810160208510156116195750805b601f840160051c820191505b81811015611638575f8155600101611625565b50505b505050565b815167ffffffffffffffff81111561165a5761165a611283565b61166e8161166884546115c2565b846115f4565b6020601f8211600181146116a0575f83156116895750848201515b5f19600385901b1c1916600184901b178455611638565b5f84815260208120601f198516915b828110156116cf57878501518255602094850194600190920191016116af565b50848210156116ec57868401515f19600387901b60f8161c191681555b50505050600190811b01905550565b602081525f6113b560208301846113bc565b634e487b7160e01b5f52603260045260245ffd5b634e487b7160e01b5f52601160045260245ffd5b5f6001820161174657611746611721565b5060010190565b604081525f61175f60408301856113bc565b905082151560208301529392505050565b8181038181111561178357611783611721565b92915050565b634e487b7160e01b5f52603160045260245ffdfea2646970667358221220e9efbc3a0786b39ddcdc758bdb829cb9a09bab6a39373f8365f3cc91d574ea3964736f6c634300081c0033",
  "linkReferences": {},
  "deployedLinkReferences": {},
  "immutableReferences": {},
  "inputSourceName": "project/contracts/Notes.sol",
  "buildInfoId": "solc-0_8_28-dbab384b4f4a6f0d4d0c73d75d18860c2d623948"
}